:020000040000FA
:0400000080312628FD
:100008007E1480318B1E09280A2812280B1D0D2802
:100018000E28122882317222803124280B1F1528BD
:10002800162824282100131E1A281B2824282000FB
:10003800131E1F28202824288231F52280312428E5
:100048007E10090080312828833193238031CA002B
:10005800F001F101F201F301F401F501203084000F
:100068000030850024308331622380317E102000E7
:1000780082318A2A043026001306031D44284528A5
:10008800C6287708F1007608F000053093002000B4
:100098003808031950285128DD28B8012B087002A8
:1000A800AD002C08713BAE002E08F9002D08F800B1
:1000B800F936F80CF936F80CF936F80C7808F2002D
:1000C8003008F9002F08F800F936F80CF936F80C62
:1000D800F936F80C7808F3001A307302031C7528F7
:1000E8007628792822000E127B2822000E16730823
:1000F800720203188028812886287208730220005B
:10010800BA008A28730872022000BA003708031D53
:100118008E288F28992810303A0203189428952899
:10012800C528B701B70AB901DD2810303A0203180B
:100138009E289F28AC280130F800390AA428F835F1
:10014800890BA3287808FF3AF9007908F405B7283D
:100158000130F800390AB128F835890BB028780839
:10016800F9007908F4040130F8007808B907083074
:100178003902031CC028C128C528B7010130C000B6
:10018800DD28DD2805301306031DCB28CC28DD2803
:1001980077082000AC007608AB00043026009300F6
:1001A800700820002B02AF0071082C3BB000B8018A
:1001B800B80A080020004008031DE328E428E528C1
:1001C8004B29C0012029C8307406031DEC28ED28EE
:1001D8004B290130C4004408BB077408A0004B2910
:1001E8008B307406031DF928FA2801297408A10028
:1001F8000130C4004408BB074B29BB014B297408D4
:10020800A200FC287408A300FC287408A400FC2899
:100218007408A500FC287408A600FC287408A70028
:10022800FC287408A800FC287408A900FC28740895
:10023800AA000130BF0001293B08C400C5014508D8
:10024800003A0319282901294408003A0319E72824
:10025800013A0319F428033A03190329013A031947
:100268000629073A03190929013A03190C29033AFF
:1002780003190F29013A031912290F3A03191529ED
:10028800013A03191829033A03191B2901290800FF
:1002980020002208C3002308C200C7013F08031D2D
:1002A800562957295829B029BF01431D5C295D29C2
:1002B8005E29C716C31D6129622963294716431E93
:1002C800662967296829C715C31E6B296C296D29FA
:1002D8004715C21E702971297229C714421F752932
:1002E8007629772947144708B13E840081300318DE
:1002F800013E85000008C5002A084506031985291E
:1003080086298929AA01BC01B029C8302006031909
:100318008E298F299229A001BC01B0298B30210692
:100328000319972998299B29A101BC01B0294708DD
:10033800C100BE01BC01BC0AC6014608203E8600B9
:10034800870181010130C4004408C6070B3046020A
:10035800031CAF29B029A12908004C349F34ED347F
:100368003E346634B534C734143459348A34F834D6
:100378002B347334A034D23401348E345D342F34AA
:10038800FC34A43477340534D6349B3448343A34B6
:10039800E934B13462341034C3342D34FE348C342F
:1003A8005F340734D434A63475343834EB34993494
:1003B8004A341234C134B3346034EF343C344E34EC
:1003C8009D34C53416346434B734FA3429345B3474
:1003D8008834D03403347134A2348031DE20813142
:1003E80081314C2181318231B32281318231C42261
:1003F8008131102A82312B2281312A2A83315B23D1
:1004080081312A2A8331402381312A2A83314923A1
:1004180081312A2A00002A2A20003C08C800C90184
:100428004908003A0319192A0E2A4808003A0319FC
:100438000E2A013A0319FE29033A0319022A013A3E
:100448000319062A073A03190A2A0E2A0800200067
:10045800C11E2F2A302A332A22008C14352A220062
:100468008C102000411E392A3A2A3D2A22000C15F8
:100478003F2A22000C112000C11D432A442A472A82
:1004880022008D15492A22008D112000411D4D2A78
:100498004E2A522A22000D168D16552A22000D12B8
:1004A8008D120800220090018C018D0110308E0001
:1004B800083021009000F1308C00C7308D00EF30FB
:1004C8008E003F3023008D003F308C0024009001C7
:1004D8008D012100951722009D0108000B11750858
:1004E800200095000130B1070030B23D00303202E3
:1004F8000A3003193102031C822A832A892A83318C
:10050800112382312000B101B20108008231A022FA
:100518008231E6302000C4000230C50083316823F0
:1005280082318B170B1783319C2382318131F12162
:1005380082319A2A803126288231562282318331AB
:100548002A238231833179238231833136238231E0
:1005580083311E238231833104238231080006301F
:1005680020002206031DB92ABA2AC32AD5302A0632
:10057800031DBF2AC02AC32A0330BC00BE010800DD
:10058800023020002206031DCA2ACB2AD42AB430FE
:100598002A06031DD02AD12AD42A0430BC00BE0161
:1005A80008002000181DD92ADA2AE12A181045085F
:1005B8009700440896001814E52A4508970044084F
:1005C800960008000130F60076082000BE07C83003
:1005D8003E02031CF02AF12AF42A0230BC00BE01B4
:1005E80008002000131226001108FA001208FB0068
:1005F8007B08F7007A08F60080313E208231080037
:1006080021001508C03914389500063020009500DF
:100618000630F5000B118B1608002000330834044F
:100628000319172B182B1D2B34088A0033080A00CE
:1006380083310800200099019701960111101708CD
:10064800B6001608B5000130980008007030210087
:10065800990098012200960121001A1F342B352B8E
:10066800302B0800043026009300920191012000ED
:10067800131221001316080022008C140C110D12FD
:100688008D118D122000BC01080022008C100C1165
:100698000D128D118D122000BC01080020003608B3
:1006A800C5003508C4008231D522833108002200F4
:1006B8008C140D168D162000BC0108006400800102
:1006C8000131890B632B003420004508B40044082D
:1006D800B300080020001608C5001708C400080069
:1006E8002000C40044089500080016302100970037
:1006F8000800750820009500080020001810080060
:10070800200018140800200099150800200011087E
:100718000800200019080800200015080800FF3408
:100728000734043405340B34193410348B34C8348A
:0407380008000800AD
:020000040001F9
:04000E00E43FFF1FAD
:00000001FF
