:020000040000FA
:0400000080312628FD
:100008007E1480318B1E09280A2812280B1D0D2802
:100018000E28122882317122803124280B1F1528BE
:10002800162824282100131E1A281B2824282000FB
:10003800131E1F28202824288331022380312428D6
:100048007E100900803128288331CB238031C800F5
:10005800F001F101F201F301F401F501203084000F
:1000680000308500243083317C2380317E102000CD
:100078008331112B043026001306031D442845281C
:10008800C82877082000AE007608AD0005302600A5
:10009800930020003A08031952285328DF28BA0190
:1000A8002B082D02AF002C082E3BB0003008F900B9
:1000B8002F08F800F936F80CF936F80CF936F80C70
:1000C8007808F0003208F9003108F800F936F80C21
:1000D800F936F80CF936F80C7808F1001A30710284
:1000E800031C772878287B2822000E127D282200FE
:1000F8000E16710870020318822883288828700851
:1001080071022000BC008C28710870022000BC001D
:100118003908031D902891289B2810303C020318A9
:1001280096289728C728B901B90ABB01DF281030DB
:100138003C020318A028A128AE280130F8003B0A89
:10014800A628F835890BA5287808FF3AF900790818
:10015800F205B9280130F8003B0AB328F835890BB5
:10016800B2287808F9007908F2040130F800780814
:10017800BB0708303B02031CC228C328C728B901A3
:100188000130C200DF28DF2805301306031DCD2803
:10019800CE28DF2877082000AC007608AB000430B2
:1001A8002600930020002D082B02B1002E082C3BBE
:1001B800B200BA01BA0A080020004208031DE52867
:1001C800E628E7284D29C2012229C8307206031DF6
:1001D800EE28EF284D290130C4004408BD077208F5
:1001E800A0004D298B307206031DFB28FC2803292B
:1001F8007208A1000130C4004408BD074D29BD01A3
:100208004D297208A200FE287208A300FE28720871
:10021800A400FE287208A500FE287208A600FE2881
:100228007208A700FE287208A800FE287208A90014
:10023800FE287208AA000130C10003293D08C40045
:10024800C5014508003A03192A2903294408003A38
:100258000319E928013A0319F628033A031905296D
:10026800013A03190829073A03190B29013A031916
:100278000E29033A03191129013A031914290F3ACF
:1002880003191729013A03191A29033A03191D29D1
:100298000329080020002208F4002308C300C50130
:1002A8004108031D582959295A29A129C101741D3A
:1002B8005E295F296029C516F41D6329642965290B
:1002C8004516741E682969296A29C515F41E6D2901
:1002D8006E296F294515C31E722973297429C514FF
:1002E800431F77297829792945144508A23E8400B7
:1002F80081300318013E85000008C4002A0844061E
:100308000319872988298A29BE01A129C83020060E
:1003180003198F2990299329A001BE01A1298B30A7
:1003280021060319982999299C29A101BE01A1290F
:100338004508F300C001BE01BE0A08004C349F34D2
:10034800ED343E346634B534C734143459348A3401
:10035800F8342B347334A034D23401348E345D3401
:100368002F34FC34A43477340534D6349B344834E1
:100378003A34E934B13462341034C3342D34FE34A1
:100388008C345F340734D434A63475343834EB34C1
:1003980099344A341234C134B3346034EF343C34C1
:1003A8004E349D34C53416346434B734FA342934A1
:1003B8005B348834D03403347134A2348031E02083
:1003C800813181314E2181318231C02281318231A6
:1003D800D1228131012A82311C2281311B2A8331A9
:1003E800392381311B2A82319C2281311B2A823197
:1003F800AE2281311B2A00001B2A20003E08C600BD
:10040800C7014708003A03190A2AFF294608003A93
:100418000319FF29013A0319EF29033A0319F329AC
:10042800013A0319F729073A0319FB29FF2908009C
:10043800F31E1F2A202A242A83319B238231272A4C
:1004480083319E238231731E2A2A2B2A2F2A833135
:10045800B3238231322A8331B62382317319352A84
:10046800362A392A8331AA238231F31D3C2A3D2AB0
:100478004B2A8331A12382318331AD238231731D0D
:10048800462A472A542A8331A7238231542A8331A2
:10049800A42382318331AA2382318331B02382316C
:1004A8000800220090018C018D0110308E00083068
:1004B80021009000F1308C00C7308D00EF308E00A5
:1004C8003F3023008D003F308C00240090018D01C7
:1004D8002100951722009D0108000B1175082000C6
:1004E80095000130B3070030B43D003034020A30C3
:1004F80003193302031C812A822A882A83312C2378
:1005080082312000B301B4010800823155228231C2
:1005180083315D238231833197238231833169238B
:10052800823183315123823183311F238231080084
:1005380083319B2382318331B62382318331A423D3
:1005480082318331AA2382318331B0238231200062
:10055800BE01080083319E2382318331B623823164
:100568008331A42382318331AA2382318331B0239A
:1005780082312000BE010800063020002206031D3B
:10058800C62AC72AD02AD5302A06031DCC2ACD2A46
:10059800D02A0330BE00C001080002302000220625
:1005A800031DD72AD82AE12AB4302A06031DDD2ADA
:1005B800DE2AE12A0430BE00C00108002000181D10
:1005C800E62AE72AEE2A18104508970044089600FC
:1005D8001814F22A450897004408960008000130CC
:1005E800F60076082000C007C8304002031CFD2A28
:1005F800FE2A012B0230BE00C001080020001312A1
:1006080026001108FA001208FB007B08F7007A0898
:10061800F60080313E2083310800823189228331FF
:100628008331452383318B170B178131E2218331C5
:10063800192B8031262821001508C0391438950057
:100648000630200095000630F5000B118B160800C7
:100658002000350836040319322B332B382B360883
:100668008A0035080A008331080083319B238331CF
:100678008331A12383318331AD2383312000BE012F
:100688000800F3302000C4000230C5008331822303
:1006980083318331D42383310800200099019701E5
:1006A800960111101708B8001608B7000130980015
:1006B800080070302100990098012200960121005D
:1006C8001A1F672B682B632B080004302600930041
:1006D8009201910120001312210013160800200036
:1006E8003808C5003708C4008231E2228331080087
:1006F800640080010131890B7D2B003420004508FE
:10070800B6004408B500080020001608C500170800
:10071800C40008002000C4004408950008007508BB
:1007280020009500080016302100970008002200DC
:100738008C14080022008C10080022000D160800F6
:1007480022000D12080022008D15080022008D11CC
:10075800080022008D16080022008D1208002200D1
:100768000C15080022000C110800200018100800C1
:10077800200018140800200099150800200011080E
:100788000800200019080800200015080800FF3498
:100798000734043405340B34193410348B34C8341A
:0407A800080008003D
:020000040001F9
:04000E00E43FFF1FAD
:00000001FF
