:020000040000FA
:0400000080312628FD
:100008007E1480318B1E09280A2812280B1D0D2802
:100018000E28122882318022803124280B1F1528AF
:10002800162824282100131E1A281B2824282000FB
:10003800131E1F28202824288331112380312428C7
:100048007E100900803128288331E0238031C800E0
:10005800F001F101F201F301F401F501203084000F
:1000680000308500243083318B2380317E102000BE
:100078008331202B043026001306031D442845280D
:10008800C82877082000AE007608AD0005302600A5
:10009800930020003A08031952285328DF28BA0190
:1000A8002B082D02AF002C082E3BB0003008F900B9
:1000B8002F08F800F936F80CF936F80CF936F80C70
:1000C8007808F0003208F9003108F800F936F80C21
:1000D800F936F80CF936F80C7808F1001A30710284
:1000E800031C772878287B2822000E127D282200FE
:1000F8000E16710870020318822883288828700851
:1001080071022000BC008C28710870022000BC001D
:100118003908031D902891289B2810303C020318A9
:1001280096289728C728B901B90ABB01DF281030DB
:100138003C020318A028A128AE280130F8003B0A89
:10014800A628F835890BA5287808FF3AF900790818
:10015800F205B9280130F8003B0AB328F835890BB5
:10016800B2287808F9007908F2040130F800780814
:10017800BB0708303B02031CC228C328C728B901A3
:100188000130C200DF28DF2805301306031DCD2803
:10019800CE28DF2877082000AC007608AB000430B2
:1001A8002600930020002D082B02B1002E082C3BBE
:1001B800B200BA01BA0A080020004208031DE52867
:1001C800E628E7284D29C2012229C8307206031DF6
:1001D800EE28EF284D290130C4004408BD077208F5
:1001E800A0004D298B307206031DFB28FC2803292B
:1001F8007208A1000130C4004408BD074D29BD01A3
:100208004D297208A200FE287208A300FE28720871
:10021800A400FE287208A500FE287208A600FE2881
:100228007208A700FE287208A800FE287208A90014
:10023800FE287208AA000130C10003293D08C40045
:10024800C5014508003A03192A2903294408003A38
:100258000319E928013A0319F628033A031905296D
:10026800013A03190829073A03190B29013A031916
:100278000E29033A03191129013A031914290F3ACF
:1002880003191729013A03191A29033A03191D29D1
:100298000329080020002208F4002308C300C50130
:1002A8004108031D582959295A29A129C101741D3A
:1002B8005E295F296029C516F41D6329642965290B
:1002C8004516741E682969296A29C515F41E6D2901
:1002D8006E296F294515C31E722973297429C514FF
:1002E800431F77297829792945144508E83E840071
:1002F80081300318013E85000008C4002A0844061E
:100308000319872988298A29BE01A129C83020060E
:1003180003198F2990299329A001BE01A1298B30A7
:1003280021060319982999299C29A101BE01A1290F
:100338004508F300C001BE01BE0A08008031E02074
:10034800813181314E2181318231CF228131823117
:10035800E0228131CD298231282281318331AD23B8
:100368008131E7298331482381318331AD238131BC
:10037800E7298231AB2281318331AA238131E729F0
:100388008231BD2281318331AD238131E7290000DB
:10039800E72920003E08C600C7014708003A0319AC
:1003A800D629CB294608003A0319CB29013A031963
:1003B800AF29033A0319B629013A0319BD29073AA7
:1003C8000319C429CB2908004C349F34ED343E343A
:1003D8006634B534C734143459348A34F8342B3479
:1003E8007334A034D23401348E345D342F34FC3469
:1003F800A43477340534D6349B3448343A34E93459
:10040800B13462341034C3342D34FE348C345F3448
:100418000734D434A63475343834EB3499344A3438
:100428001234C134B3346034EF343C344E349D3428
:10043800C53416346434B734FA3429345B34883418
:10044800D03403347134A234F31E2B2A2C2A302AD8
:100458008331B0238231332A8331B3238231731934
:10046800362A372A3A2A8331BF238231F31D3D2A9F
:100478003E2A4F2A8331B62382318331C223823107
:100488008331CB238231731D4A2A4B2A632A833155
:10049800BC238231632A8331B92382318331BF235C
:1004A80082318331C5238231731E5B2A5C2A602A1C
:1004B8008331C8238231632A8331CB2382310800F8
:1004C800220090018C018D0110308E00083021002F
:1004D8009000E1308C00C7308D00EF308E003F3047
:1004E80023008D003F308C00240090018D012100F5
:1004F800951722009D0108000B1175082000950032
:100508000130B3070030B43D003034020A3003191B
:100518003302031C902A912A972A83313B23823184
:100528002000B301B4010800823164228231833192
:100538006C2382318331A62382318331782382313F
:1005480083316023823183312E2382310800833145
:10055800B02382318331CB2382318331B923823175
:100568008331BF2382318331C52382312000BE010C
:1005780008008331B32382318331CB238231833125
:10058800B92382318331BF2382318331C52382313C
:100598002000BE010800063020002206031DD52ACF
:1005A800D62ADF2AD5302A06031DDB2ADC2ADF2AD1
:1005B8000330BE00C0010800023020002206031DDF
:1005C800E62AE72AF02AB4302A06031DEC2AED2A87
:1005D800F02A0430BE00C00108002000181DF52ACA
:1005E800F62AFD2A181045089700440896001814A2
:1005F800012B450897004408960008000130F600D2
:1006080076082000C007C8304002031C0C2B0D2BB5
:10061800102B0230BE00C001080020001312260073
:100628001108FA001208FB007B08F7007A08F600A8
:1006380080313E2083310800823198228331833112
:10064800542383318B170B178131A2218331282B37
:100658008031262821001508C03914389500063045
:10066800200095000630F5000B118B1608002000BD
:10067800350836040319412B422B472B36088A00CC
:1006880035080A00833108008331B0238331833170
:10069800B62383318331C22383312000BE01080091
:1006A80002302000C4000330C50083319123833118
:1006B8008331E923833108002000990197019601CD
:1006C80011101708B8001608B70001309800080084
:1006D80070302100990098012200960121001A1F0C
:1006E800762B772B722B080004302600930092019A
:1006F8009101200013122100131608002000380869
:10070800C5003708C4008231F12283310800640033
:1007180080010131890B8C2B003420004508B6007C
:100728004408B500080020001608C5001708C400D2
:1007380008002000C400440895000800750820003F
:1007480095000800163021009700080022000C16BA
:10075800080022000C12080022008C140800220055
:100768008C10080022000D16080022000D12080047
:1007780022008D15080022008D11080022008D1618
:10078800080022008D12080022000C150800220023
:100798000C11080020001810080020001814080088
:1007A80020009915080020001108080020001908E9
:1007B8000800200015080800FF3407340434053405
:0E07C8000B34193410348B34C8340800080088
:020000040001F9
:04000E00E43FFF1FAD
:00000001FF
