:020000040000FA
:0400000080312628FD
:100008007E1480318B1E09280A2812280B1D0D2802
:100018000E28122882316922803124280B1F1528C6
:10002800162824282100131E1A281B2824282000FB
:10003800131E1F28202824288231FA2280312428E0
:100048007E100900803128288331BA238031C70007
:10005800F001F101F201F301F401F501F60120309C
:1000680084000030850023308331682380317E107E
:1000780020008331092B043026001306031D452870
:100088004628BA287808F3007708F200053093006C
:1000980020003608031951285228CF28B6017008C5
:1000A8007202AB007108733BAC002C08FA002B08F5
:1000B800F900FA36F90CFA36F90CFA36F90C79081F
:1000C800B8002E08FA002D08F900FA36F90CFA36AD
:1000D800F90CFA36F90C7908B9001A303902031C00
:1000E800762877287B2822000D13FB017F28220021
:1000F8000D17FB01FB0A20003508031D84288528FD
:100108008E287B08031D89288A28B928B501B50AD5
:10011800F401CF287B08031D92289328A0280130DA
:10012800F900740A9828F935890B97287908FF3A55
:10013800FA007A08F505AB280130F900740AA528F9
:10014800F935890BA4287908FA007A08F5040130F2
:10015800F9007908F40708307402031CB428B5289C
:10016800B928B5010130BF00CF28CF2805301306C4
:10017800031DBF28C028CF287808F1007708F000B1
:1001880004309300720870022000AD007308713BC0
:10019800AE00B601B60A080020003F08031DD528A6
:1001A800D628D7283D29BF011229C8307506031D56
:1001B800DE28DF283D290130C3004308BA07750847
:1001C800A0003D298B307506031DEB28EC28F32889
:1001D8007508A1000130C3004308BA073D29BA01D8
:1001E8003D297508A200EE287508A300EE287508B9
:1001F800A400EE287508A500EE287508A600EE28CC
:100208007508A700EE287508A800EE287508A9004B
:10021800EE287508AA000130BE00F3283A08C3008A
:10022800C4014408003A03191A29F3284308003A7C
:100238000319D928013A0319E628033A0319F528BE
:10024800013A0319F828073A0319FB28013A031958
:10025800FE28033A03190129013A031904290F3A20
:1002680003190729013A03190A29033A03190D2921
:10027800F328080020002208C2002308C100C40196
:100288003E08031D482949294A299129BE01421DD2
:100298004E294F295029C416C21D532954295529BE
:1002A8004416421E582959295A29C415C21E5D29C7
:1002B8005E295F294415C11E622963296429C41473
:1002C800411F67296829692944144408D33E8400DA
:1002D80081300318013E85000008C3002A08430640
:1002E8000319772978297A29BB019129C830200672
:1002F80003197F2980298329A001BB0191298B300B
:1003080021060319882989298C29A101BB01912972
:100318004408C000BD01BB01BB0A08002000C01E84
:10032800962997299B2983318A2381319E298331F4
:100338008D23813120004019A229A329A6298331C0
:10034800992381312000C01DAA29AB29BD298331F9
:100358009023813183319C2381318331A5238131DD
:100368002000401DB829B929D2298331962381312B
:10037800D229833193238131833199238131833188
:100388009F2381312000401ECA29CB29CF298331E0
:10039800A2238131D2298331A523813108004C342D
:1003A8009F34ED343E346634B534C734143459348C
:1003B8008A34F8342B347334A034D23401348E3474
:1003C8005D342F34FC34A43477340534D6349B346C
:1003D80048343A34E934B13462341034C3342D34F7
:1003E800FE348C345F340734D434A634753438344E
:1003F800EB3499344A341234C134B3346034EF34B2
:100408003C344E349D34C53416346434B734FA342D
:1004180029345B348834D03403347134A2348031C5
:10042800D020823181313E2182318231B82282311D
:100438008231C9228231322A8131922182314C2A79
:100448008331872382314C2A8231942282314C2A8B
:100458008231A62282314C2A00004C2A20003B0817
:10046800C500C6014608003A03193B2A302A450848
:10047800003A0319302A013A0319202A033A0319CA
:10048800242A013A0319282A073A03192C2A302A60
:100498000800220090018C018D0110308E00083078
:1004A80021009000F1308C0087308D00FF308E00E5
:1004B8003F3023008D003F308C00240090018D01D7
:1004C8002100951722009D0108000B1176082000D5
:1004D80095000130AF070030B03D003030020A30DF
:1004E80003192F02031C792A7A2A802A83312423AC
:1004F80082312000AF01B001080082314D228231E3
:1005080083314923823183318323823183315523D7
:10051800823183313D2382318331172382310800B0
:1005280083318A2382318331A52382318331932316
:10053800823183319923823183319F238231200094
:10054800BB01080083318D2382318331A523823199
:1005580083319323823183319923823183319F23DD
:1005680082312000BB010800063020002206031D4E
:10057800BE2ABF2AC82AD5302A06031DC42AC52A7E
:10058800C82A0330BB00BD01080002302000220643
:10059800031DCF2AD02AD92AB4302A06031DD52A0A
:1005A800D62AD92A0430BB00BD0108002000181D36
:1005B800DE2ADF2AE62A1810440897004308960026
:1005C8001814EA2A440897004308960008000130E6
:1005D800F70077082000BD07C8303D02031CF52A44
:1005E800F62AF92A0230BB00BD01080020001312C8
:1005F80026001108FC001208FD007D08F8007C08A0
:10060800F70080313F208231080082318122833116
:100618008331312383318B170B17823113228331B6
:10062800112B8031262821001508C039143895006F
:100638000630200095000630F6000B118B160800D6
:1006480020003108320403192A2B2B2B302B3208B7
:100658008A0031080A0083310800EB302000C3000B
:100668000230C40083316E2383318331C323833145
:100678000800200099019701960111101708B4008D
:100688001608B30001309800080070302100990066
:1006980098012200960121001A1F532B542B4F2B2F
:1006A80008000430260093009201910120001312E3
:1006B80021001316080020003408C4003308C300C2
:1006C8008231DA2283310800640080010131890B0C
:1006D800692B003420004408B2004308B100080028
:1006E80020001608C4001708C30008002000C30033
:1006F8004308950008007608200095000800163089
:100708002100970008002000BB01080022008C147B
:10071800080022008C10080022000D160800220094
:100728000D12080022008D15080022008D11080006
:1007380022008D16080022008D12080022000C15D8
:10074800080022000C1108002000181008002000E2
:100758001814080020009915080020001108080046
:10076800200019080800200015080800FF34073485
:10077800043405340B34193410348B34C83408006D
:02078800080067
:020000040001F9
:04000E00E43FFF1FAD
:00000001FF
