:0400000080312628FD
:100008007E1480318B1E09280A2812280B1D0D2802
:100018000E28122882314D22803124280B1F1528E2
:10002800162824282100131E1A281B2824282000FB
:10003800131E1F2820282428823198228031242842
:100048007E10090080312828833127238031C80099
:10005800F001F101F201F301F401F501203084000F
:100068000030850025308231F62280317E10200054
:100078008231352A043026001306031D44284528FA
:10008800C5287708F1007608F000053093002000B5
:100098003908031950285128DC28B9012B087002A7
:1000A800AD002C08713BAE002E08F9002D08F800B1
:1000B800F936F80CF936F80CF936F80C7808BB0064
:1000C8003008F9002F08F800F936F80CF936F80C62
:1000D800F936F80C7808F2001A307202031C7528F9
:1000E8007628792822000E167B2822000E12720824
:1000F80020003B0203188128822886283B087202C8
:10010800BA00892872083B02BA003808031D8D28F6
:100118008E28982810303A02031893289428C42867
:10012800B801B80AB701DC2810303A0203189D2834
:100138009E28AB280130F800370AA328F835890B28
:10014800A2287808FF3AF9007908F305B6280130A3
:10015800F800370AB028F835890BAF287808F90075
:100168007908F3040130F8007808B7070830370237
:10017800031CBF28C028C428B8010130C200DC28ED
:10018800DC2805301306031DCA28CB28DC2877088D
:100198002000AC007608AB000430260093007008FD
:1001A80020002B02AF0071082C3BB000B901B90A3E
:1001B800080020004208031DE228E328E4284A2911
:1001C800C2011F29C8307306031DEB28EC284A29F1
:1001D8000130C5004508BC077308A0004A298B30C8
:1001E8007306031DF828F92800297308A1000130B7
:1001F800C5004508BC074A29BC014A297308A20062
:10020800FB287308A300FB287308A400FB287308C5
:10021800A500FB287308A600FB287308A700FB2885
:100228007308A800FB287308A900FB287308AA0014
:10023800BE01BE0A00293C08C500C6014608003AAE
:100248000319272900294508003A0319E628013A25
:100258000319F328033A03190229013A0319052956
:10026800073A03190829013A03190B29033A031914
:100278000E29013A031911290F3A03191429013AD1
:1002880003191729033A03191A290029080020001D
:100298004308A93E840081300318013E8500000808
:1002A800C6002A08460603195A295B295D29AA01AE
:1002B800A829C83020060319622963296529A001E5
:1002C800A8298B30210603196A296B296D29A101F8
:1002D800A829C101C31E71297229752922008C140D
:1002E800772922008C102000431E7B297C297F2936
:1002F80022000C15812922000C112000C31D85291C
:100308008629892922008D158B2922008D1120002C
:10031800431D8F299029942922000D168D1697299F
:1003280022000D128D122000C7014708203E8600CA
:10033800870181010130C5004508C7070B30470216
:10034800031CA729A829992908004C349F34ED34A7
:100358003E346634B534C734143459348A34F834E6
:100368002B347334A034D23401348E345D342F34BA
:10037800FC34A43477340534D6349B3448343A34C6
:10038800E934B13462341034C3342D34FE348C343F
:100398005F340734D434A63475343834EB349934A4
:1003A8004A341234C134B3346034EF343C344E34FC
:1003B8009D34C53416346434B734FA3429345B3484
:1003C8008834D03403347134A23420002208F40075
:1003D8002308C400C301741DF229F329F529C316A3
:1003E800F629C312F41DF929FA29FC294316FD2917
:1003F8004312741E002A012A032AC315042AC311B2
:10040800F41E072A082A0A2A43150B2A4311C41E78
:100418000E2A0F2A112AC314122AC310441F152AA0
:10042800162A182A4314192A43100800220090019A
:100438008C018D018E01083021009000F1308C0074
:10044800C7308D00EF308E003F3023008D003F30E5
:100458008C00240090018D012100951722009D0138
:10046800080082316522823189302000C5000230BF
:10047800C6008231FC2282318B170B17833130235F
:10048800823122000E168231D9228231472A8031E8
:1004980026280B117508200095000130B30700309D
:1004A800B43D003034020A3003193302031C5D2ABC
:1004B8005E2A642A8231B42282312000B301B40159
:1004C800080082311A2282318231CD228231833171
:1004D8000D2382318231E32282318231C12282317D
:1004E8008231A722823108002000181D7C2A7D2A2B
:1004F800842A181046089700450896001814882A78
:10050800460897004508960008000130F60076086E
:100518002000C107C8304102031C932A942A972A55
:10052800BF01BF0AC10108002000131226001108EC
:10053800FA001208FB007B08F7007A08F600803101
:100548003E208231080021001508C0391438950072
:100558000630200095000630F5000B118B160800B8
:100568002000350836040319BA2ABB2AC02A3608DF
:100578008A0035080A008231080020009901970195
:10058800960111101708B2001608B1000130980042
:10059800080070302100990098012200960121007E
:1005A8001A1FD72AD82AD32A08008031DD208231A1
:1005B8008131E921823181314B21823108000430B7
:1005C80026009300920191012000131221001316B6
:1005D800080020003208C6003108C50082317822A0
:1005E80082310800640080010131890BF72A003448
:1005F80020004608B6004508B50008002000160887
:10060800C6001708C50008002000C5004508950069
:100618000800163021009700080075082000950092
:1006280008002000181008002000181408002000F6
:100638009915080020001108080020001908080072
:10064800200015080800FF340734043405340B343F
:0C065800193410348B34C834080008003A
:020000040001F9
:08000000FF3FFF3FFF3FFF3F00
:04000E00E43FFF1FAD
:00000001FF
