:04000000803119280A
:100008007E1480310B1F09280A2817282100131E87
:100018000E280F2817282000131E13281428172825
:1000280080314C2080317E10090080311B28F4017A
:10003800F5017E10200080317C28220090018C017F
:100048008D018E01083021009000F1308C00C730FE
:100058008D00FF308E003F3023008D003F308C0034
:10006800240090018D012100951722009D010800B0
:100078008031212080318031672080318031842097
:10008800803180317320803180315B2080310800DD
:100098002000131226001108F2001208F30073085A
:1000A800F1007208F00080318820803108002000BB
:1000B80099019701960111101708F5001608F40028
:1000C8000130980008007030210099009801220042
:1000D800960121001A1F712872286D280800260031
:1000E80093019201910120001312210013160800B8
:1000F80080313C2080318B170B17812880311928DB
:0A01080016302100970008000800DF
:020000040001F9
:08000000FF3FFF3FFF3FFF3F00
:04000E00E43FFF1FAD
:00000001FF
